:10166F00E52CF45480FFC4540FFFE52C54072F25AD
:10167F00E024B4F582E4347FF58322907F00F0A359
:10168F00E4F0907FB57402F022AA06A9077B018BC4
:0F169F00238A248925EA49225391EF907FAB22B9
:100A6B00C0E0C0F0C083C082C085C084C0867586DC
:100A7B0000C0D075D000C000C001C002C003C004CC
:060A8B00C005C006C00713
:100A9100907FE8E0F52AA3E0FFA3E0F52BA3E0FEB9
:100AA100A3E0F52CA3E0F52DD20AEF12136E0C0C86
:100AB100000C4A010C9E030CCE040ACE060BFD0865
:100AC1000BF7090BE20A0BF10B00000D45AF06EE27
:100AD10024FE601914603324026003020BDCE54636
:100AE100907FD4F0E547907FD5F0020D48AF2B12EF
:100AF10015EE121698600DEE907FD4F0EF907FD531
:100B0100F0020D48121993020D48AF2B12174C1227
:070B110016987003020BD6D9
:100B1800AB238B2E8A2F8930121322F531907FEE6A
:100B2800E0FFE531D39F4003E0F531E53170030282
:100B38000BC8752900752800752700752600E53152
:100B4800C394405004AF3180027F40E4FCFDFEAB0B
:100B580029AA28A927A826C31213515032E53025FF
:100B680029F582E52F3528F583E0FF74002529F55E
:100B780082E4347FF583EFF0E5292401F529E43593
:100B880028F528E43527F527E43526F52680AFE54E
:100B980031C394405004AF3180027F40907FB5EF5D
:100BA800F0E531C394405004AF3180027F40C3E583
:100BB800319FF531907FB4E020E203020B3380F4DB
:0B0BC800907FB5E4F0907FB47402F061
:100BD300020D48121993020D48121993020D489001
:100BE3007F00E51EF0907FB57401F0020D48852B60
:100BF3001E020D48852B1F020D48907F00E51FF054
:100C0300907FB57401F0020D48E52A247F601A1421
:100C130060232402702BA209E433FF25E0FFA2071F
:100C2300E4334F12168A020D48907F00E4F0A312BA
:100C33001690020D4812166FE0540112168A020D27
:100C430048121993020D48E52A24FE601724026016
:100C530003020D48E52BB40105C209020D48121920
:100C630093020D48E52B702DE52CF45480FFC454FA
:100C73000FFFE52C5407FE12167DE4F0E52C54809B
:0B0C8300FF131313541F2E907FD7F0B7
:030C8E00752E00C0
:100C9100E04420F0020D48121993020D48E52A2480
:100CA100FE601724026003020D48E52BB40105D252
:100CB10009020D48121993020D48E52B700912160D
:100CC1006F7401F0020D48121993020D48E52A24B0
:100CD10040706CE52BF4907F00F0A3E4F0E52B2449
:100CE10060603224DF60292411704F907F00E50A93
:100CF100F0A3E50BF0A3E514F0A3E513F0A3E512CF
:100D0100F0A3E511F0907FB57406F0530AFE803729
:100D11001216918032D204E52C30E01730050AC258
:100D210004907F017407F0800C907F017406F0D26B
:100D3100058002C205121691800D121993800812C6
:100D410019938003121993907FB4E04402F01216B4
:040D5100A77401F092
:100D5500D007D006D005D004D003D002D001D000F2
:100D6500D0D0D086D084D085D082D083D0F0D0E0CA
:010D7500324B
:0114FF0032BA
:011A7600323D
:10163000C0E0C083C082C085C084C086758600902B
:101640007FC7E4F0907FC9F0907FCBF0907FCDF022
:10165000907FCFF0907FD1F0907FD3F01216A774D7
:0F16600010F0D086D084D085D082D083D0E032F5
:1017CB00C0E0C083C082C085C084C086758600D24D
:1017DB0008D2041216A77408F0D086D084D085D016
:0617EB0082D083D0E03241
:011A7700323C
:011A7800323B
:011A7900323A
:011A7A003239
:011A7B003238
:011A7C003237
:011A7D003236
:011A7E003235
:011A7F003234
:011A80003233
:1017A300C0E0C083C082C085C084C08675860075D2
:1017B3000A005391EF907FAA7410F0D086D084D0A2
:0817C30085D082D083D0E03212
:011A81003232
:011A82003231
:1017F100C0E0C083C082C085C084C08675860053A6
:1018010091EF907FA97440F0D086D084D085D082AA
:05181100D083D0E0329D
:011A83003230
:011A8400322F
:011A8500322E
:10199300907C00E04480F0907FC17408F0907FB4A5
:0519A300E04401F02208
:101394007F7F121A5F907843E04480F0E04420F0AD
:1013A400907841E0F539753A78AF3A153AD3EF645D
:1013B400809480400DE4907841F07420F012189EDF
:1013C40080E7753A78E4FFFEAD3A153AD3ED6480D0
:1013D4009480401EE4907841F0AD071FD3ED648003
:1013E400948040030080F29078417420F00EAF06A0
:0D13F40080D6907841E539F07F08021A6636
:071A5F00907841E05FF022E6
:071A6600907841E04FF022EF
:091A5600E4F555F5567554FF2224
:10171F00301429E5546F600A121A568F547F8012C5
:10172F001965D3E5569400E5556480949040057F84
:0D173F008002197C0556E556700205552202
:10196500907F98E0FEEF54C0F4FDEE5DF0E0FEEFF1
:071975005420FFEE4FF022A9
:10197C00907F98E0FEEF54C0FDEE4DF0E0FEEF548A
:07198C0020F4FFEE5FF022E2
:10185C00907FA5E04480F0907FA674A0F0907FA5C7
:10186C00E030E0F9907FA6EFF0907FA5E030E0F952
:01187C002249
:0F1A0000907FA5E04440F0907FA5E020E6F9221A
:1016AE00907FA5E04480F0907FA674A1F0907FA576
:1016BE00E030E0F9907FA5E04420F0907FA6E0FFB7
:1016CE00907FA5E030E0F9907FA5E04440F0907F58
:0B16DE00A6E0FF907FA5E020E6F922C7
:101816007FC012197C7F201219657F0912185C128D
:101826001A00C20B12146C3008FD121558C20812A9
:0418360018AF80F374
:100FD600E4F538C2081214BD907F9874C0F07F0201
:100FE6007E0012187D1216AE8F38E5386455600BF8
:100FF600E538F460061219CE121816C20AC209C2E2
:1010060007907FA17401F0907F92E054FDF0754641
:10101600107547C77548107549D9754C11754D003F
:10102600754A11754B6C854A36854B377F09121800
:101036005C121A007F027E0012187D1211841216AD
:10104600AEBF5521E4F5381216AE85378285368354
:10105600A3A375F002E538121362EFF00538E53800
:10106600C3940A40E2D20B12146CE4F534F5352031
:101076000A2D1219CEAE34AF35E4FCFD7B507AC38F
:10108600F9F8D312133B500AD20B12146CE4F53460
:10109600F5350535E5357002053412189E80D012F7
:1010A6001394C20B1219F0538EF830080F1219CE92
:1010B6002008097FF47E0112187D80AE1200FF80A1
:0110C600E940
:1019CE0030080D121558C2081218AF121184C20A2F
:0119DE0022E6
:1012230003023FFFFFFFFF07020203FFFFFFFF0071
:10123300212139FFFFFFFF3900003FFFFFFFFF3F81
:101243000712053FFFFFFF0700030001FFFFFF0039
:1012530031313939FFFFFF39003F003FFFFFFF3FC7
:101263001C111323253FFF07020303030305FF009C
:10127300393938383939FF3900090912123FFF3F2C
:10128300012A1A0124353F3F01030110050105001E
:101293003B393D39393D3939003B00003F003F00C0
:10140100E4907839F09078387480F0E4907827F09F
:10141100907825F09078267439F090784A7402F02B
:10142100907824741BF0E490781CF0753912753AA9
:10143100237E797F00753B79753C00FFFE053AE517
:101441003AAC397002053914F5828C83E0FD053C14
:10145100E53CAA3B7002053B14F5828A83EDF00F4F
:0A146100BF00010EEF64804E70D34F
:01146B00225E
:0A1A41007E797F40907940E55AF06D
:011A4B002278
:10183A00E4F545907841E04440F090782AEFF09042
:10184A007835EDF0907825E030E7F97FBF121A5F1E
:01185A00D3BA
:01185B00226A
:0218DE00A8055B
:1018E000E4F54590782AEFF0907835E0FE90782581
:0B18F000E030E7F9907836E0F67F006A
:0118FB0022CA
:03000300021A6D71
:051A6D00D200C2A83206
:1012A300907F96E0FF907841E04440F0E490782A04
:1012B300F0907835E0F54E907825E030E7F99078B6
:1012C30036E0F54E90782A7401F0907835E0F54FCA
:1012D300907825E030E7F9907836E0F54FE54E3029
:1012E300E402D202E54F55587008E54E544F555766
:1012F300601A907FC0E020E113907C007401F0300D
:101303001304E04410F0907FC17408F0C200C201DE
:0E131300907F96EFF0907841E054BFF0D2A8A2
:0113210022A9
:1018BF00907FC0E020E113907C007401F03013049E
:0F18CF00E04410F0907FC17408F0D201C20022F3
:1019A8007D4EE4FF1218DE7D4F7F011218DEC20162
:0319B800D2A82290
:03001300021A8648
:011A8600322D
:03005300021A0F7F
:0D1A0F00C2AF5391BF75A201D203D2AF3216
:060D76008F3E8C3F8D4012
:100D7C00E4F541E53E75F002A4FFC3E5419FE5F0C3
:100D8C006480F87480984003020EDBE5412401FF77
:100D9C00E433FEE5402FF582E53F3EF583E0F54276
:100DAC00E5402541F582E4353FF583E0F543121328
:100DBC006E0DD9080E37090E3D0A0E4D0B0DFE0CAB
:100DCC000E0A0D0E2E0E0DE67E00000E63AF4212C3
:100DDC0015A75003020ECB7F0522E542F4700302E7
:100DEC000ECBE5422460FF1215A75003020ECB7FF9
:100DFC000522E54264017003020ECB7F0222C21071
:100E0C00C213854253907C00E054EFF0E5531392EB
:100E1C0010E55320E103020ECBD213E04410F00294
:100E2C000ECB85425A121A41020ECB854250020E4D
:100E3C00CBE5425407FF907841E054F84FF0020E96
:100E4C00CBD214E54220E077C214FF121965E542BB
:100E5C00F4FF12197C8068E543D3941040037F03A0
:100E6C0022E543601414601624FE601724FC6043D2
:100E7C0024037044854259803F854257803A85420D
:100E8C00588035E542B4890A9078267439F0D2112D
:100E9C008026E542B4090A907826743FF0C211808E
:100EAC0017E542B48A04D212800EE542B40A09C294
:100EBC00128005D20F1219BBAD42AF4312183A057E
:100ECC00410541200003020D7F1212A3020D7FC2C7
:060EDC000F1219BB7F009C
:010EE20022ED
:1015A7008F443000031212A33001031219A8C2029C
:1015B700121A56D20F1219BBAD447F0712183A40C0
:1015C700012220021BE4FF12171F3000031212A38F
:1015D7003004EFC2047D0A7F0312183AD204C322F3
:0715E700C20F1219BBD32251
:1019F000300B057FFE021A5F907841E04401F0222F
:1019BB00300F08907F96E054FEF022907F96E04423
:0319CB0001F02206
:1016E900030C083F08007E000855038A030C083FD5
:1016F900083508007E000389030C083F08350818DF
:1017090008007E000389030C0819085F030B038A8C
:0617190003890309030A25
:100EE3007400253BF582E4347EF583E50BF0053B86
:100EF300907FB9E53BF022907E00E50BF0907FB93F
:100F03007401F02274C02539F582E4347CF583E062
:100F1300229078397401F022907FCDE0C3953BF5A0
:100F230009E4F022907CC0E0F515A3E0F516A3E0F8
:100F3300F517A3E0F518227A78790E7E787F0E9064
:100F430078517478F0A3740EF0227A7E79007E7E55
:100F53007F00907851747EF0A37400F0227A787940
:100F6300007E787F0090784F7478F0A37400F022AD
:100F73007A7879057E787F0590784F7478F0A3743A
:100F830005F022E4FFFEFDFCAB1CAA1BA91AA8195D
:100F930022E4FFFEFDFCAB10AA0FA90EA80DC302AD
:100FA3001351F50B851C10851B0F851A0E85190D22
:100FB30022F0C2AF9078557401F02290782CE53C72
:100FC300F090782E22907801E0F53C22907806E0AC
:030FD300F53C22C8
:1000FF0030140A7F401219657F2012197C300003DB
:10010F001212A33001031219A8907FCDE0700302E1
:02011F0009DEF7
:10012100E4F539F53AC20BF53BF53CC20CD20DC2F0
:1001310003907CC0E0F50C121919C20F1219BBE52E
:100141000C14700302023824FE70030205EC24FE35
:10015100602D0460030209D1907E0074FBF0907C55
:10016100C1E0F53C7C7C7DC2FF120D76907E01EFF3
:10017100F0907FB97402F0E4907FCDF00209DE9037
:100181007E0074FAF0E4A3F0907CC1E0F539E53C1F
:10019100C39539400302022374C2253CF582E4343D
:1001A1007CF583E0F53A12136E01E90301E40401E1
:1001B100C80901CD0A01D50B01C30D01DF0E0000F5
:1001C10001F785535280488550528043907841E031
:1001D100F552803B907F98E054E0F5528031855A8A
:1001E10052802C8559528027D20F1219BB7D52AFF4
:1001F1003A1218DE8019E53AD39410400B907E0133
:100201007403F0E4F53980077D52AF3A1218DE74B9
:1002110002253CF582E4347EF583E552F0053C028B
:10022100018FC20F1219BBE53C2402907FB9F0E4A3
:10023100907FCDF00209DE120F2712193390781E3C
:100241007401F0E4F50A120FA5F508F509C20B7562
:100251003B08E51830E717120A4E5012300403022A
:1002610005A93000031218BF907FCDE060EEE518BC
:1002710020E334E51624209016EEF09016F0E517F1
:10028100F0E55924409016F2F07C167DE97F0612C4
:100291000D76EF6012E4FF1219DF5003120F1BD22B
:1002A10005430B400205A9E51830E4097D0C7F03E5
:1002B10012183A801C201212E4FF1219DF500312A7
:1002C1000F1BD205430B800205A97D0B7F0312187A
:1002D1003A121A56E4FF1219DF40030205A9E51884
:0602E10030E20302046D8F
:1002E700753DEE7F011219DF502474C0253B120FB4
:1002F7000BFF1215A74010E4FF1219DF4003020598
:10030700A9120F1B0205A97F011218FC053B74C037
:10031700253BF582E4347CAF8290784FF0A3EFF071
:10032700120F3A120A59500CC37440953BF53CE43E
:10033700F53B801C121A1C5007E51C14F53C800382
:10034700E4F53CE53C253B24C0120F0BF53DD20BF1
:100357007F011219DF4003020449907854E53C12EB
:100367000FB4907855E030E7F9D2AFE4907FCDF045
:100377007A7C79C07E7C7FC090784F747CF0A374C0
:10038700C0F0300D1D7A7879137E787F13907851FD
:100397007478F0A37413F090782D120FC17401F0E4
:1003A700800F120F3A907831E53CF0907832740163
:1003B700F0AF3C1218FC200B43300D0890780FE08B
:1003C700F5398006907814E0F539AF3912171F30E8
:1003D7000406120F140205A93000031218BF907FFC
:1003E700CDE060D5E0F53C7F401219DF400EE51CFB
:1003F70014F53C24C0120F0BF53DD20B300D0890BD
:10040700780FE0F5398006907814E0F539AF3912A6
:10041700171F30041B120F14853C09300D09907803
:100427000FE0F5080205A9907814E0F5080205A980
:100437003000031218BF907825E030E7BFB20D02F5
:100447000357E4907FCDF0E51830E0077D087F0380
:1004570012183AAF3D1215A740030205A9430B2016
:03046700121A4C1A
:03046A000205A9DF
:10046D00C20EE4FF1219DF40030205A9120A59500A
:10047D0009C37440953BF53C800C851C3CE5183058
:10048D00E002153CD20E853B39E53C253BFFE433BC
:10049D00FEC3E5399FEE6480F87480984003020531
:1004AD0031120F07FF1215A7400BE539953BFF12CF
:0A04BD0018FC0205A9E51830E465FB
:1004C700120F07F53DE5592420FFE433FEE53DB55E
:1004D700070FE4B5060B7C177D197F01120D768097
:1004E70041E5592440FFE433FEE53DB5070FE4B588
:1004F700060B7C177D177F01120D768025E53DB42D
:100507003F0B7C177D1B7F01120D768015E53DB4EF
:100517005F05120A62800BE53D54E0FFBF400312FE
:050527000A6212189E9B
:10052C000539020496AF3CE4FCFDFEAB07C3E51CA9
:10053C009BFFE51B9400FEE51A9400FDE519940061
:10054C00FCE47B01FAF9F8C31213517029E5183059
:10055C00E0247D087F0312183AE53B251C24BFF5E7
:10056C0082E4347CF583E0FF1215A75030430B2056
:10057C00121A4C02046FAF3C1218FC120A4E5017A0
:10058C00E4FF12171F2004153000031212A3907FF2
:0D059C00CDE060EC02046F430B2002046F01
:1005A900300408AF0812194C430B10121919120F15
:1005B900947004907FCDF0200505430A018008E579
:1005C900082509FF1218FC2010030209DE907FC0DC
:1005D900E030E1033004F6907C007402F0121778E1
:1005E9000209DE120F27907CC8E0F51D121933E4C9
:1005F900907FCDF0F53B750A02120FA5C20CE518E4
:1006090020E12EE51624409016FCF09016FEE51721
:10061900F0E55924209016FAF07C167DF57F071233
:100629000D76EF600C300403430B50120EFA0209E9
:10063900C9E518540A640A7032E516244090170A6D
:10064900F090170CE517F0E5592420901706F07C77
:10065900177D017F08120D76902000EFF0600C30B5
:100669000403430B50120EFA0209C9201109430B66
:1006790080120EFA0209C97D0B7F0312183A90788D
:100689002A7402F0121A56E4FF1219DF4003020914
:07069900A5300C030209A5C6
:1006A000D20EC203E4FF1219DF400302098D300CA1
:1006B0000302098DE51820E2030207A390782C7449
:1006C00001F090782EE0F539E4FF12171F30040690
:1006D000120F14430B103000031218BF3003063002
:1006E0000303120F14907825E030E7DC907801E0E6
:1006F0006019907800E0FF7400253BF582E4347EB9
:10070000F583EFF0053B7F011218FC300303430B28
:1007100001121A1C4003430B20E53BD39400401206
:1007200074FF253BF582E4347DF583E0B51D03437A
:100730000B08E53B64407027121919907FB974408B
:10074000F0E4F53B907FB8E030E114300409430B4E
:10075000102005030209C93000EA1218BF80E5E540
:100760000B70030206A4121919E53BD3943E500501
:10077000120EE38029E53B643F7023120EE3907F65
:10078000B8E030E114300409430B102005030209DE
:10079000C93000EA1218BF80E5E4907FB9F0D20CAE
:1007A0000206A4851C3C7F401219DF5003753C40B3
:1007B000120FBEE0F53CE4FF1219DF40030206A46D
:1007C000300C030206A4300E05120FC88003120F6E
:1007D000CFAF3C12171F30040E120F14FF7E001211
:1007E000187D430B10D20C300306300303120F1494
:1007F0003000031218BF907825E030E7C9300305B8
:10080000D20C430B01300E08907801E0F53B8006D6
:10081000907806E0F53BAF3B1218FCE50B60031245
:100820001919E4FF1219DF5029200C267F401219F4
:10083000DF5005753C408003851C3C300E0E9078DF
:1008400030E53CF0907832E0F53C8006120FBEE0D7
:10085000F53C120F4D907854E53BF0300E05120F29
:10086000608003120F73300E05120FCF8003120F3A
:10087000C8AF3C12171F300429120F14FF7E00125C
:10088000187DE50B7016430B10300E05120FCF804C
:1008900003120FC8AF3C1218FC12191920050302ED
:1008A00009C93000031218BF907FB8E020E1B7E516
:1008B0003BD39400400C120FB5907855E030E7F927
:1008C000D2AF120F86C31213517003430B20E50BF6
:1008D0007003020982E4FF1219DF5050200C4DE52D
:1008E0003B94004047120EF3907FB8E030E11430A3
:1008F0000409430B102005030209C93000EA12184D
:10090000BF80E5120F4D907801E0F53B120F60308B
:100910000E09120F73907806E0F53B907854E53B92
:10092000120FB4907855E030E7F9D2AFE53BD3949D
:100930003E5005120EE38046E53B643F7022120EE6
:10094000E3907FB8E030E111300406430B1030052E
:10095000783000ED1218BF80E8E4907FB9F0801E77
:10096000120EF3907FB8E030E111300406430B1013
:100970003005563000ED1218BF80E8120EFAD20C86
:100980008006907FB97440F0B20E0207B6907FB82F
:10099000E030E111300406430B1030052C3000ED3F
:0509A0001218BF80E801
:1009A500120F947003120EFAE518540AFFBF0A14C9
:1009B5007C177D0F7F04120D76EF6008D20C300492
:1009C50003430B50121919430A01800D907C00E076
:0909D5004480F0907FC17408F029
:1009DE00E4FF12171F30042DC20490781E7401F02C
:1009EE00200522907FCDE06002E4F0907FCDE060A4
:1009FE0002E4F0E4907FB9F0F0F0F0907FB874026A
:100A0E00F0907FBAF0300537E50C6401702F300599
:100A1E0026200423E4FF1219DF5012907FCDE060F0
:100A2E000EE0FF1218FCE4907FCDF08002C205307C
:0F0A3E0000DC1218BF80D7430A01121A4CC20500
:100A4D0022E4F53B907FCDF0FF0219DFC374409592
:0E0A5D003BFF0219DF7C177D1D7F01020D7625
:0A1A4C00E4F51CF51BF51AF519224C
:10193300907CC7E0F519907CC6E0F51A907CC5E071
:09194300F51B907CC4E0F51C22A8
:10177800907C01E50BF0A3E514F0A3E513F0A3E5D5
:1017880012F0A3E511F030000B907C00E04401F06A
:0B179800D201C200907FC17408F02253
:1018FC00E4FCFDFEC3E51C9FF51CE51B9400F51BE9
:0D190C00E51A9400F51AE5199400F519226A
:10194C00E4FCFDFEE51C2FF51CEE351BF51BED35FF
:09195C001AF51AEC3519F51922EF
:1019DF00E4FCFDFE120F8BD31213514002D322C32E
:0119EF0022D5
:0D1A1C00120F86C31213516002D322C322A1
:10191900C3E510951CF514E50F951BF513E50E9518
:0A1929001AF512E50D9519F51122CB
:0C1A2900F0E4907C00F0A3F0907C06221A
:10118400C204C205C210C213C211C212E4F50AF5A8
:101194000BF514F513F512F511C201F550F553C210
:1011A40014121A56755A1C121A41907FDE7444F0B8
:1011B400907FDF7410F0E4907FB5F0907F93F0900F
:1011C4007F9604F0907F9C74DFF0907F95740CF010
:1011D400E490784CF0907F987420F0907F9E74FF98
:1011E400F09078417404F0907843744FF012140135
:1011F400C2AFC200C288D2A8C2AA90785E7406F0B8
:1012040090783CE054FDF05391BF90783B7402F029
:0F121400907849E04401F0D2EA1214BDD2AF2223
:1014BD00907FAC7440F0907FAD7410F0907FDD7430
:1014CD0015121A2974FFF0A3F0907FC17408121A37
:1014DD002974FEF0A3F043D820907FAFE04401F0D3
:1014ED00907FAE7419F05391EF907FAB7409F0D2E9
:0214FD00E822E3
:10155800E4907F94F0907F97F0907F9D74FFF0E483
:10156800907F95F0907F9874C0F0907F9E74FFF004
:10157800E4907841F0907843745FF0E4907845F017
:1015880090784774FFF0E490782AF0907826F090ED
:0F1598007F93F0907F96F0907F9C74FFF0D322AA
:03003300021A723C
:041A720053D8EF3224
:1010C7001201010100000040570907010000010259
:1010D70005010902270001010380FA090400000342
:1010E70000000000070504024000000705820240D7
:1010F70000000705860308000104030904360341BD
:1011070000670069006C0065006E007400200054E1
:10111700006500630068006E006F006C006F006779
:10112700006900650073002C00200049006E006311
:10113700002E002C03380032003300350037004101
:101147000020002800300034003100300031003228
:10115700002D00310030003A003200310029000430
:10116700030904020316035500530031003200330C
:0D117700003400350036003700380000005D
:03004300021500A3
:10150000020A6B00021A76000214FF000217CB00D9
:1015100002163000021A7700021A7800021A7900C7
:10152000021A7A00021A7B00021A7C00021A7D005D
:10153000021A7E00021A7F00021A80000217A3001E
:10154000021A8100021A82000217F100021A8300B7
:08155000021A8400021A850052
:10187D008E3E8F3FE53F153FAE3E7002153E4E60EA
:01188D000F4B
:0F188E00754064AF401540EF60E912189E80F47A
:01189D002228
:07146C00907FD6E04408F078
:03147300E4F53964
:04147600E054FBF053
:03147A00E4F5395D
:10147D00E04408F0300B04E04402F07FDC7E0512FE
:10148D00187D907F92E030E3077FDC7E0512187D9A
:10149D00907FAB74FFF0907FA9F0907FAAF05391ED
:0814AD00EF907FD6E054F7F048
:0314B500E4F53922
:0514B800E04404F022F5
:1015EE00E4FEAC48AD498D828C83A3E06402702D7D
:1015FE00AB060EEBB50705AF05AE04228D828C83CC
:10160E00A3A3E0F532A3E0F5336232E5326233E5AF
:10161E003362322DFBE5323CFCAD0380C97E007F88
:01162E0000BB
:01162F002298
:02174C00A907EB
:10174E00AE4CAF4D8F828E83A3E064037017AD0154
:10175E0019ED7001228F828E83E07C002FFDEC3E0E
:09176E00FEAF0580DF7E007F0064
:01177700224F
:10189E007400F58690FFF97C05A3E582458370F907
:0118AE002217
:1018AF00907FD6E04480F0438701000000000022C3
:03000000021A35AC
:0C1A3500787FE4F6D8FD75815A020FD6C8
:10132200BB010689828A83E0225002E722BBFE02C9
:09133200E32289828A83E49322FC
:10133B00EB9FF5F0EA9E42F0E99D42F0EC6480C829
:06134B0064809845F022C9
:10135100EB9FF5F0EA9E42F0E99D42F0E89C45F0F2
:011361002269
:0C136200A42582F582E5F03583F5832296
:10136E00D083D082F8E4937012740193700DA3A30E
:10137E0093F8740193F5828883E473740293686022
:06138E00EFA3A3A380DF22
:00000001FF
