:100FFA00E4F543C20712160E75A0C07F027E0012E6
:10100A0015871210CC8F43E5436455600BE543F412
:10101A006006121A15121884C209C208C20690E69E
:10102A0000E054E74410F0E054FDF0750C0F750D24
:10103A000075140F751512750A0F750B1C75120FB2
:10104A0075134475160F75176C75080F7509E285C7
:10105A0008418509427F091218E9121A267F027E81
:10106A0000121587120E0B1210CCBF5521E4F5435E
:10107A001210CC854282854183A3A375F002E54311
:10108A001213DAEFF00543E543C3940A40E290E60F
:10109A0080E020E105D20F12178D90E680E054F728
:1010AA00F0538EF8C2078010300712121A15200763
:1010BA00F77FF47E011215871215CD80EB120056C8
:0210CA0080E6BE
:101A150030070D12140CC20712168A120E0BC209DA
:011A2500229E
:1015CD00E4F544F54520092D121A15AE44AF45E456
:1015DD00FCFD7B507AC3F9F8D31213B3500AD20F26
:1015ED0012178DE4F544F5450545E54570020544B2
:1015FD0012169E80D0120EE4C20F121A65538EF889
:01160D0022BA
:0C1A3500F0E490FC00F0A3F090FC06220E
:100E0B00C204C205C20AC212C20BC20CE4F52DF514
:100E1B002EF537F536F535F534C201F51AF51DC249
:100E2B0011121A59751E1C121AC212164E12145D8B
:100E3B0000000090E60B7403F000000090E60474D1
:100E4B0080F00000007402F00000007404F0000059
:100E5B00007406F00000007408F0000000E4F000DD
:100E6B00000090E618F000000090E619F00000007A
:100E7B0090E61AF000000090E61BF000000090E6F0
:100E8B00497486F0000000F0000000F090E67074EA
:100E9B0003F075800475B27F90E6717407F075A04E
:100EAB002075B4FF75B00475B54FC2AFC200C288D0
:100EBB00D2A8C2AA0000005391BF75A20100000086
:100ECB0090E6617402F000000090E660F000000014
:090EDB0043E80412160ED2AF2206
:10164E0000000090E61274E3F000000090E61474BF
:10165E00A3F000000090E61574F0F0000000E49096
:10166E00E610F090E611F000000090E6997480F01C
:0C167E00000000F0000000F043AF01226B
:10160E0090E65EE044C0121A3574FFF0A3F0E49049
:10161E00E69CF000000090E69D7408121A3574FEE8
:10162E00F0A3F043D82090E668E0440BF05391EF1E
:10163E0090E65CE04439F090E65D7409F0D2E82261
:10178D00300F0990E680E0440AF0800790E680E093
:10179D004408F07FDC7E0512158790E65D74FFF03E
:0F17AD0090E65FF05391EF90E680E054F7F02262
:101587008E468F4790E600E054187012E547240115
:10159700FFE43546C313F546EF13F547801590E68C
:1015A70000E05418FFBF100BE54725E0F547E54677
:1015B70033F546E5471547AE46700215464E6005BA
:0615C7001216AF80EE22B7
:10168A0090E682E044C0F090E681F04387010000D2
:04169A00000000222A
:10169E007400F58690FFF37C05A3E582458370F90F
:0116AE002219
:1016AF007400F58690FDA57C05A3E582458370F94E
:0116BF002208
:03004300021100A7
:0300530002110097
:101100000214AE00021A02000219EF0002199B003D
:101110000217BC0002175B00021ADB00021ADC0097
:10112000021ADD00021ADE00021ADF00021AE000D5
:10113000021AE100021AE200021952000219B2007A
:10114000021AE300021ADC00021AE400021AE500A7
:10115000021AE600021AE700021AE800021AE90081
:10116000021AEA00021ADC00021ADC00021ADC0091
:10117000021AEB00021AEC00021AED00021AEE004D
:10118000021AEF00021AF000021AF100021AF2002D
:10119000021AF300021AF400021AF500021AF6000D
:1011A000021AF700021AF800021AF900021AFA00ED
:0811B000021AFB0002004600D8
:100F0000120100020000004057091807000001020A
:100F100005010A0600020000004001000902270046
:100F200001010380320904000003000000000705EE
:100F3000820200020007050602000200070588037E
:100F400008000100090227000101048032090400A1
:100F500000030000000007058202400000070506AC
:100F6000024000000705880308000100040309048B
:100F700036034100670069006C0065006E00740074
:100F8000200054006500630068006E006F006C0074
:100F90006F0067006900650073002C0020004900A5
:100FA0006E0063002E001403380032003300350059
:100FB000370042002000280029001403480049009F
:100FC000470048005300500045004500440014030A
:100FD000460055004C004C005300500045004500B1
:100FE0004400160355005300310032003300340032
:0A0FF000350036003700380000001D
:0B1A7D0090E678E04480F090E67922CB
:100EE4007F7F121ACE43B58043B5207F20121AD2D9
:0C0EF4007FF47E011215877F08021AD2DD
:0C1A4100EF54C0F452A0EF542042A02249
:0C1A4D00EF54C042A0EF5420F452A0223D
:0C1A5900E4F551F55274FFF54FF55022F2
:1017290030112EE5506F7003E54F6E600C121A5997
:101739008E4F8F507F80121A41D3E5529400E551A4
:10174900941040057F80021A4D0552E5527002053A
:0217590051221B
:1018E900AD07121A7D74A0F090E678E030E0F99027
:0C18F900E679EDF090E678E030E0F922AE
:0D00060090E679EFF090E678E030E0F92226
:0F1A260090E678E04440F090E678E020E6F92280
:1010CC00121A7D74A1F090E678E030E0F990E678A1
:1010DC00E04420F090E679E0FF90E678E030E0F92B
:1010EC0090E678E04440F090E679E0FF90E678E016
:0410FC0020E6F922CF
:041ACE00EF52B02201
:041AD200EF42B0220D
:101884007FC0121A4D7F20121A417F091218E912E3
:101894001A26C20F12178D3007FD12140CC207123C
:0418A400168A80F32D
:10140C0090E6F574FFF000000090E601E054FCF06B
:10141C00E4F59075B3FF90E671F075A0C075B4FF5C
:10142C00F5B075B55F90E672F0F5B175B6FF90E664
:10143C00C5F000000090E6C1F000000090E6C2F09C
:10144C0000000090E6707403F0E4F58075B2FFD3F1
:01145C00226D
:03003300021AD6D8
:041AD60053D8EF32C0
:0608C2008F478C488D49B0
:1008C800E4F54AE54775F002A4FFC3E54A9FE5F061
:1008D8006480F87480984003020A57E54A2401FFAF
:1008E800E433FEE5492FF582E5483EF583E0F54B14
:1008F800E549254AF582E43548F583E0F54C24823C
:1009080060402476B4090040030209DF900922758B
:10091800F003A4C58325F0C5837302093D02099B32
:100928000209A10209C902096202096E02099202BA
:1009380009B00209BAAF4B1214F85003020A477FF4
:100948000522E54BF47003020A47E54B2460FF12C9
:1009580014F85003020A477F0522E54B640170032F
:10096800020A477F0222C20AC212854B1D90FC0070
:10097800E054EFF0E51D13920AE51D20E103020A99
:1009880047D212E04410F0020A47854B1E121AC2E1
:10099800020A47854B1A020A47E54B5407FFE5B0A0
:1009A80054F84FF5B0020A47854B1BAF1B1218E9E4
:1009B800800AAF1B1218E9AF4B120006121A2680E4
:1009C8007ED211E54B20E077C211FF121A41E54BA8
:1009D800F4FF121A4D8068E54CD3941040037F034E
:1009E80022E54C601414601624FE601724FC604352
:1009F80024037044854B59803F854B57803A854B7B
:100A0800588035E54BB4890A90E6C27439F0D20BA8
:100A18008026E54BB4090A90E6C2743FF0C20B8009
:100A280017E54BB48A04D20C800EE54BB40A09C210
:100A38000C8005D210121A88AD4BAF4C1218A805BD
:100A48004A054A2000030208CB1212E30208CBC26F
:060A580010121A887F0055
:010A5E002275
:0611B8008F448C458D46BA
:1011BE00E4F547F548E547C39544400302125BE565
:1011CE00462547F582E43545F583E0F5491213E6E9
:1011DE00122A0312250412020912070A120C0B110D
:1011EE00FD0D12200E12140F12191000001235856B
:1011FE001D1C8046851A1C804185B01C803CE5A0D4
:10120E0054E0F51C8034754808802F1210CC8F1CCA
:10121E008028851E1C802385591C801ED210121A10
:10122E00887D1C7F038010E549D3941040057548D6
:10123E000380077D1CAF491218C974022547F58239
:10124E00E434F0F583E51CF005470211C3C2101219
:04125E001A88AF48F3
:011262002269
:1014F8008F4D3000031212E33001031219DCC202CF
:10150800121A59D210121A88AD4D7F071218A84026
:10151800012220021CE4FFFE1217293000031212D8
:10152800E33004EEC2047D0A7F031218A8D204C374
:0815380022C210121A88D3220E
:0C1A6500300F057FFE021ACE43B00122B4
:0B1A88003010045380FB224380042236
:1016C000030C083F08007E000855038A030C083FFE
:1016D000083508007E000389030C083F0835081808
:1016E00008007E000389030C0819085F030B038AB6
:0616F00003890309030A4F
:100BA900142400F58274F03EF583E52EF0E52390D8
:100BB900E690F022E4FFFEFDFCC3AB3FAA3EA93D4F
:100BC900A83C0213C990E6ACE02526F526E43525B4
:100BD900F5252290F000E52EF0E490E690F022C38E
:100BE900E52C9524F52AE52B9523F5292290E6F5A0
:100BF90074FFF02290F000F090F801E0752500F5FF
:100C090026FF7CF87D022290F800E0F538A3E0F594
:100C190039A3E0F53AA3E0F53B2290E6ABE075266F
:100C290000F52522E55524FEFFE55434FFFED3E502
:100C3900249FE5239E22E4FFFE02198EF52E853FAF
:100C490033853E32853D31853C3022FEFDFCAB3398
:100C5900AA32A931A8300213C990E699E0252CF5EA
:100C69002CE4352BF52B22C3E5559524F526E554BF
:100C79009523F5252274002545F58274F83544F548
:100C890083E022E55524FFFFE55434FFFEEF652498
:100C99002290E6ACE02524F524E43523F52322E56A
:100CA9003F24FFF526E53E34FFF52522F58274F849
:100CB9003EF583E0F548D20E220524E524AE232231
:100CC900E52490E691F022E5262524FFE525352344
:100CD900FE2290E698E0752C00F52B2290E6ABE019
:060CE900752400F5232232
:1000560030110A7F40121A417F20121A4D300003D8
:100066001212E33001031219DC90E6A5E030E20338
:100076000202C6C20DE4F523F524120CDB000000D3
:10008600120C62000000E4F525F526C20EC203122A
:100096001905C210121A8890F800E0F52F14604A6C
:1000A60024FE70030201A424FE601F046003020202
:1000B600B174FB120BFD1208C290F001EF120BE1B6
:1000C60000000090E6917402801974FA120BFD127A
:1000D60011B890F001EF120BE1000000E5262402B2
:1000E60090E691F01200360202C6120C101219396F
:1000F600121812E4F52D120C45F527F528F529F509
:100106002AC20EF523752408E53B30E71BE4F523E8
:10011600F524120036120355500E20047B300003DE
:1001260012185FE5AA20E4F2E53B20E334E5392422
:10013600209016C5F09016C7E53AF0E55924409090
:1001460016C9F07C167DC07F061208C2EF60121237
:1001560003555006120BE8120036D205432E408096
:1001660037E53B30E4047D0C8017200C1212035C4B
:100176005006120BE8120036D205432E8080197DF8
:100186000B7F031218A812034B500DE53B20E20526
:100196001207238003120A5F1215400202C6120CD0
:1001A6001090F808E0F540121939120036E4F523EC
:1001B600F524752D02120C45C20DE53B20E12AE51A
:1001C6003924409016D3F09016D5E53AF0E5592437
:1001D600209016D1F07C167DCC7F071208C2EF6006
:1001E6000830043D432E508038E53B540A640A70BB
:1001F6002AE53924409016E1F09016E3E53AF0E559
:100206005924209016DDF07C167DD87F081208C28E
:10021600EF6008300403432E508006200B11432E56
:1002260080120BDC00000090E69104F00202AC7D27
:100236000B7F031218A890E6C57402F012034B5008
:1002460036200D33C20312035C5016200D13E53B16
:1002560030E207120CEF50EE804C12057F50E7801B
:1002660045E5AA20E011300406432E10300537304C
:1002760000EF12185F80EAE4FFC3120C54700B12F1
:100286000BDC00000090E69104F0E53B540AFFBF4A
:100296000A147C167DE67F041208C2EF6008D20DB0
:1002A600300403432E50121ABB801590FC00E04424
:1002B60080F0E490E69CF000000090E69D7408F063
:1002C600E4FFFE121729300431C204121812200569
:1002D60029E5AA20E403120036E5AA20E403120069
:1002E60036E5AA20E40312003690E6047480F00096
:1002F60000007402F0000000E4F0300547E52F64CA
:1003060001703F300536200433E4FFFE12198E508B
:1003160021E5AA20E41E120CDB000000120C62008C
:100326000000452C600EAF2CAE2B12191F120036A2
:100336008002C2053000CC12185F80C7432D01121F
:040346001A9EC20534
:10034A0022121A59E4FFFE12198E22E4FFFE121934
:09035A008E22E4FFFE12198E222E
:0A1A9E00E4F53FF53EF53DF53C226E
:1019390090F807E0F53C90F806E0F53D90F805E0F1
:09194900F53E90F804E0F53F22A0
:1016F60090FC01E52EF0A3E537F0A3E536F0A3E56F
:1017060035F0A3E534F030000B90FC00E04401F026
:10171600D201C200E490E69CF000000090E69D74C1
:0317260008F022A6
:10196B00E4FCFDE53F2FF53FE53E3EF53EED353D15
:08197B00F53DEC353CF53C2282
:0B198300C3E5559524FFE5549523FEB5
:0D198E00E4FCFDD3120BC34002D322C322A0
:091AB200120BBD6002D322C32215
:10190500C3E533953FF537E532953EF536E5319537
:0A1915003DF535E530953CF5342230
:10191F00AA06C3E53F9FF53FE53E9AF53EE53D94A8
:0A192F0000F53DE53C9400F53C2274
:0D00360000000090E6497486F000000022F2
:1015400030040AAF28AE2712196B432E101219056A
:10155000E47F02D3120C54500312003620050543D9
:101560002D01800DE528252AFFE5273529FE1219D2
:101570001F300A12E5AA30E7043004F82290FC007C
:071580007402F01216F622BE
:071ABB00121905432D012261
:1019C800E5BB30E70EE5AB20E00912183A75BB0419
:0419D80000000022E9
:10183A00AC06000000E490E6CEF000000090E6CF8F
:10184A00F0000000EC90E6D0F0000000EF90E6D146
:05185A00F00000002277
:100723007548EE7F017E0012198E50307400252427
:10073300F58274F83523F583E0FF1214F8400E12A6
:100743000C3F40030208A7120BE80200367F017E2C
:100753000012191F0524E524700205231219835082
:1007630005120C708018121AB25005120CA88005DD
:10077300E4F525F526120CD074002F120CB5E524F0
:100783004523603F852344852445E4FFFEC2AF052E
:1007930045E545AC4470020544142400F58274F821
:1007A3003CF583E0FD0FEFAA0670010E142400F55B
:1007B3008274F83AF583EDF0C3EF9526EE95254064
:1007C300CED2AF1219835005E4F523F5247F017EC1
:1007D3000012198E400302088B3004028036300069
:1007E3000312185FE5AC30E1F0E52590E698F000E0
:1007F300000090E699E526F0FFAE2512183A75BB86
:1008030002000000AF26AE2512191F200E3E12086B
:10081300A8300407120BF600000022300003121860
:100823005FE5AA20E4E890E698120C260000009009
:10083300E699120BD1000000AF55AE5412198E4049
:100843000B120CA8FE74002526120CB51208A83052
:100853000426120BF600000085252985262A90E63A
:10086300AFE0752800F52700000090E6B0E02528EA
:10087300F528E43527F5272230000312185F90E6A8
:10088300C1E030E7C70207D0120036E53B30E0078E
:100893007D087F031218A8AF481214F85006432EA0
:0408A30020121A9E67
:1008A7002290E6D0E0FE90E6D1E07C002400F547F8
:0B08B700EC3EF546AF47FE1217292269
:100A5F00C20F120C3F4003020BA81219835005124C
:100A6F000C708015853E25853F26E53B30E008E577
:100A7F0026152670021525D20F852344852445128D
:100A8F000CD0C3E5459FE5449E4003020B20120C9A
:100A9F007EFF1214F8400DE5459524FFE54495239C
:090AAF00FE02191FE53B30E45D75
:100AB800120C7EF546E5592420FFE433FEE546B5E1
:100AC800070AE4B506067C167DF08039E55924400E
:100AD800FFE433FEE546B5070AE4B506067C167D55
:100AE800EE8022E546B43F067C167DF28017E54687
:100AF800B45F067C167DF4800CE54654E0FFBF40E9
:0D0B0800097C167DF47F011208C212169EB2
:100B15000545E54570020544020A8EAE25AF26ABB4
:100B250007AA06C3E53F9BFFE53E9AFEE53D940017
:100B3500FDE53C9400FCE47B01FAF9F8C31213C906
:100B45007030E53B30E02B7D087F031218A8E524C3
:100B5500253FFFE523353EFE74FF2FF58274F73EF2
:100B6500F583E0FF1214F8503A432E20121A9E0224
:100B75000A61AF26AE2512191FE4F523F5241200EC
:100B850036120C3F5017E4FFFE12172920041430CB
:100B950000031212E3E5AA20E4EC020A61432E20C9
:030BA500020A61E0
:010BA800222A
:100CEF007F017E001219C8E4FFFE12172930040994
:100CFF00120BF6000000432E1030000312185F3065
:100D0F000309300306120BF600000090E6C1E03035
:100D1F00E7D590E6ABE07F00FE00000090E6ACE088
:100D2F002FFFE43E4F600F0524E524700205237F5B
:100D3F00017E0012191F300303432E01121AB24015
:100D4F0003432E20D3E5249400E52394004013742D
:100D5F00FF2524F58274EF3523F583E0B540034377
:100D6F002E08E52465557004E5236554702F12197C
:100D7F0005E55490E690F0000000E55590E691F0FF
:100D8F00E4F523F524E5AA20E013300408432E10E0
:100D9F00200502D3223000ED12185F80E8E52E60A7
:100DAF0059121905120C2D5011120CC27002052385
:100DBF00120BA9000000E524803A120C8C7003EE90
:100DCF0065237034120CC270020523120BA90000A8
:100DDF0000120CC9E5AA20E013300408432E10209E
:100DEF000502D3223000ED12185F80E8E490E69000
:0B0DFF00F000000090E691F0D20DC360
:010E0A0022C5
:10057F00120C3F4003020721300D03020721AF5534
:10058F00AE5412198E500885542585552680068540
:10059F003E25853F26AE25AF261219C8120C230023
:1005AF000000120BCEAF26FE12172930040B120BD0
:1005BF00F6000000432E10D20D300306120BF6008A
:1005CF00000030000312185F90E6C1E030E7CD3035
:1005DF000305D20D432E01120CE5000000120C9AF8
:1005EF00AF24FE12191FE52E6003121905120C23FA
:1005FF00000000120BCEAF26FE1217293004241272
:10060F000BF6000000E52E7015432E10120C230080
:10061F000000120BCEAF26FE12191F12190520056E
:10062F0002D32230000312185FE5AA30E0BF120B8D
:10063F00BD7003432E20E52E700302070F120C3FEF
:10064F005037200D34E5249400E5239400402A12FE
:10065F000BB6000000120CC9E5AA20E01330040805
:10066F00432E10200502D3223000ED12185F80E8D0
:10067F00120CE5000000120C9A120C2D5011120CE6
:10068F00C270020523120BA9000000E524803A1264
:10069F000C8C7003EE65237036120CC270020523AA
:1006AF00120BA9000000120CC9E5AA20E0133004B8
:1006BF0008432E10200502D3223000ED12185F8060
:1006CF00E8E490E690F000000090E691F0802C12A4
:1006DF000BB6000000120CC9E5AA20E01330040885
:1006EF00432E10200502D3223000ED12185F80E850
:1006FF00120BDC00000090E69104F0D20D02057F92
:10070F00E55490E690F0000000E55590E691F00278
:04071F00057FC3226D
:1018120090E6047480F0000000E5AC20E106740656
:10182200F0000000E5AB20E10990E6047402F0004C
:081832000000E490E604F0223E
:1012630003023FFFFFFFFF07020203FFFFFFFF0031
:10127300212139FFFFFFFF3900003FFFFFFFFF3F41
:101283000712053FFFFFFF0700030001FFFFFF00F9
:1012930031313939FFFFFF39003F003FFFFFFF3F87
:1012A3001C111323253FFF07020303030305FF005C
:1012B300393938383939FF3900090912123FFF3FEC
:1012C300012A1A0124353F3F0103011005010500DE
:1012D3003B393D39393D3939003B00003F003F0080
:10145D0090E6F574FFF000000090E6F37480F0E480
:10146D0090E6C3F090E6C1F090E6C27439F090E6D4
:10147D000174C2F090E6C0741BF0E490E6F4F075D0
:10148D00AF077412F59A7463F59B74E4F59D7400BF
:10149D00F59EE4FF90E67BE090E67CF00FBF80F4D4
:0114AD00221C
:061AC20090E440E51EF077
:011AC80022FB
:1018A800E4F54E43B04090E6C5EFF000000090E646
:1018B800F1EDF090E6C1E030E7F97FBF121ACED320
:0118C80022FD
:0218C900A80570
:1018CB00E4F54E90E6C5EFF000000090E6F1E090F5
:0D18DB00E6C1E030E7F990E6F2E0F67F00AC
:0118E80022DD
:03000300021AC915
:051AC900D200C2A832AA
:1012E300AD8043B040E490E6C5F090E6F1E0F51838
:1012F30090E6C1E030E7F990E6F2E0F51890E6C534
:101303007401F090E6F1E0F51990E6C1E030E7F9F9
:1013130090E6F2E0F519E51830E402D202E519553A
:10132300587008E518544F55576020E5AA20E71B6D
:1013330090FC007401F0301204E04410F0E490E6F5
:101343009CF000000090E69D7408F0C200C2018D7D
:061353008053B0BFD2A8D8
:011359002271
:10185F00E5AA20E71B90FC007401F0301204E0446D
:10186F0010F0E490E69CF000000090E69D7408F004
:05187F00D201C20022AD
:1019DC007D18E4FF1218C97D197F011218C9C201C4
:0319EC00D2A8225C
:03001300021ADAF4
:011ADA0032D9
:0A1AA8000001020203030404050517
:10135A00EC4EFEED4F24A8F582741A3EF583E49311
:10136A00FF3395E0FEEF24A1FFEE34E68F82F5838A
:10137A00E02290E6BCE0547EFF7E00E0D394807CBD
:10138A0000225391EF90E65D22F0E490E68AF09015
:10139A00E68B22850F82850E83A37402F0228511C3
:0913AA0082851083A37407F02270
:1003630090E6B9E0B40C004003020574900376F8FC
:1003730028287302042902046A0205740204BD02D8
:1003830004FA02057402039A02057402041C0204AF
:100393001302040302040A90E6BBE024FE60271460
:1003A300603824FD601114602724067050E50C901A
:1003B300E6B3F0E50D803C121A93503EE51490E647
:1003C300B3F0E515802DE50E90E6B3F0E50F80233D
:1003D300E51090E6B3F0E511801990E6BAE0FF125C
:1003E30017E7AA06A9077B01EA494B600DEE90E6E1
:1003F300B3F0EF90E6B4F0020577020574020574DA
:1004030090E740E553801790E6BAE0F5530205778D
:1004130090E6BAE0F55602057790E740E5561213E9
:100423009304F002057790E6B8E0247F601514602A
:10043300192402702FA208E43325E0FFA206E43357
:100443004F8017E490E740F0801512137C40047D41
:100453000180027D0012135A540190E740F0E4A397
:10046300F002056802057490E6B8E024FE601624E5
:1004730002600302057790E6BAE0B40105C2080200
:10048300057702057490E6BAE0702C12137C4004E1
:100493007D0180027D0012135A54FEF090E6BCE009
:1004A3005480131313541FFFE0540F2F90E683F06F
:1004B300E04420F002057702057490E6B8E024FEDC
:1004C300601E2402702E90E6BAE0B40105D2080241
:1004D300057790E6BAE064027003020577020574BB
:1004E30012137C40047D0180027D0012135A4401E3
:1004F300F002057702057490E6B8E024407070902E
:10050300E6BAE0F490E740F0E4A3F090E6BAE02422
:1005130050602D24EF604D24217052D20490E6BC2C
:10052300E030E01730050AC20490E7417407F08019
:100533000C90E7417406F0D2058002C205E48025E1
:1005430090E740E52DF0A3E52EF0A3E537F0A3E512
:1005530036F0A3E535F0A3E5341213937406F05394
:100563002DFE8010E41213957402F0800780028040
:0B0573000012001690E6A0E04480F0AB
:01057E00225A
:1014AE00C0E0C0F0C083C082C0D075D000C000C004
:1014BE0001C002C003C004C005C006C00790E6B557
:1014CE00E04401F0D20912036312138C7401F0D0C0
:1014DE0007D006D005D004D003D002D001D000D062
:0A14EE00D0D082D083D0F0D0E032DD
:1019EF00C0E0C083C08212138C7404F0D082D08305
:0319FF00D0E03203
:101A0200C0E0C083C08212138C7402F0D082D083F3
:031A1200D0E032EF
:1017BC00C0E0C083C08285120E85130F12139D8565
:1017CC000A10850B111213A875540075554012138D
:0B17DC008C7410F0D082D083D0E0327B
:10199B00C0E0C083C082D207D20412138C7408F04B
:0719AB00D082D083D0E032AE
:10175B00C0E0C083C08290E680E030E718850A0EB7
:10176B00850B0F12139D8512108513111213A8757B
:10177B00540275550012138C7420F0D082D083D094
:02178B00E0324A
:011ADB0032D8
:011ADC0032D7
:011ADD0032D6
:011ADE0032D5
:011ADF0032D4
:011AE00032D3
:011AE10032D2
:011AE20032D1
:10195200C0E0C083C082752D005391EF90E65F74A2
:0919620040F0D082D083D0E032C5
:1019B200C0E0C083C0825391EF90E65F7480F0D0A4
:0619C20082D083D0E03268
:011AE30032D0
:011AE40032CF
:011AE50032CE
:011AE60032CD
:011AE70032CC
:011AE80032CB
:011AE90032CA
:011AEA0032C9
:011AEB0032C8
:011AEC0032C7
:011AED0032C6
:011AEE0032C5
:011AEF0032C4
:011AF00032C3
:011AF10032C2
:011AF20032C1
:011AF30032C0
:011AF40032BF
:011AF50032BE
:011AF60032BD
:011AF70032BC
:011AF80032BB
:011AF90032BA
:011AFA0032B9
:011AFB0032B8
:1000160090FC00E04480F0E490E69CF00000009044
:0D002600E69D7408F090E6A0E04401F02291
:0B1A930090E50DE030E402C322D322F6
:0D004600C2AF5391BF75A201D203D2AF32F9
:0217E700A90750
:1017E900AE16AF178F828E83A3E064037017AD0125
:1017F90019ED7001228F828E83E07C002FFDEC3E73
:08180900FEAF0580DFE4FEFFE5
:0118110022B4
:03000000021A7170
:0C1A7100787FE4F6D8FD758159020FFA69
:1013B300EB9FF5F0EA9E42F0E99D42F0EC6480C8B1
:0613C30064809845F02251
:1013C900EB9FF5F0EA9E42F0E99D42F0E89C45F07A
:0113D90022F1
:0C13DA00A42582F582E5F03583F583221E
:1013E600D083D082F8E4937012740193700DA3A396
:1013F60093F8740193F5828883E4737402936860AA
:06140600EFA3A3A380DFA9
:00000001FF
